:100000004BC0A8C262C061C0B6C05FC05EC05DC068
:100010005CC05BC05AC059C058C057C056C055C01C
:1000200054C053C052C060C062C06EC075C096C09C
:1000300080C08AC086C099C00902120001010080F8
:100040003209040000000000000012011001FF004E
:100050000008C016DC050001010200011003460083
:100060006F006300750073006500720028036D0067
:1000700063006F006E006F00760069006300690026
:10008000400067006D00610069006C002E00630095
:100090006F006D000403090411241FBECFEDCDBF16
:1000A00010E0A0E6B0E0ECECF7E002C005900D92A5
:1000B000A637B107D9F710E0A6E7B0E001C01D925E
:1000C000AE3AB107E1F75AD37FC39ACFFC01418121
:1000D00050E0415051094930510508F04AC04D5E89
:1000E0005F4F4F935F9308958FE690E00FC0848138
:1000F00080936F008581809370008281809371006E
:1001000083818093720035C08BE690E090939300DA
:100110008093920084E00895848180936B008581B0
:1001200080936C00828180936D00838180936E0048
:1001300020C082E890E0909393008093920082E048
:1001400008951092770015C082818093680081E045
:100150008093770080916A0086BF0BC08281809374
:100160006A0083818093690004C0828193819BBD72
:100170008ABD80E0089578941F920F920FB60F9277
:1001800011242F933F934F935F936F937F938F939C
:100190009F93AF93BF93EF93FF9380917700882352
:1001A000A9F080916F0090917000A0917100B091C2
:1001B000720040916B0050916C0060916D007091E5
:1001C0006E0084179507A607B70731F410927700E1
:1001D0008091690086BF2BC0309168002091760025
:1001E000332369F00196A11DB11D80936F00909398
:1001F0007000A0937100B09372002F5F0CC0019744
:10020000A109B10980936F0090937000A0937100D1
:10021000B0937200215020937600E0917600E77051
:10022000E0937600F0E0E05AFF4F808188BBFF91B9
:10023000EF91BF91AF919F918F917F916F915F915E
:100240004F913F912F910F900FBE0F901F901895D7
:1002500094988C9A8FEC97E00197F1F700C000001A
:10026000949A8C98E3E0F1E03197F1F700C0000038
:1002700080B3E3EAF6E03197F1F700C00000849B19
:1002800002C08071089581E0089598E0282F2170C0
:1002900094988C9A3AE03A95F1F700C0222311F035
:1002A0008C98949A35E43A95F1F70000849B20E00D
:1002B00030EF3A95F1F78C98949A869521118068E1
:1002C000915021F708951F93CF93DF93809173008E
:1002D000823069F0833089F0813099F5B9DF81117E
:1002E00030C08CECD2DF84E4D0DF82E028C08FEF16
:1002F000CCDF8F3F31F583E022C0AADF8CECC5DF75
:100300008EEBC3DFC8E7D0E010E08FEFBEDF89934C
:10031000182788E09CE8169508F419278A95D9F7DC
:1003200080E0C138D80789F7111108C080917800A2
:1003300080938200809179008093830081E0809394
:100340007300DF91CF911F910895CF93DF93809138
:100350009400835087FD87C0909191002091900078
:100360002D3209F07EC0883009F07BC0CCE0D0E0AF
:10037000C91BD109C856DF4F83EC809384008AE5FE
:1003800080937400109281008881807619F0CE01EC
:100390009DDE5EC09A8110928D008981811106C018
:1003A00010928E002DE830E082E04EC0853019F4C6
:1003B000909395003DC08630A9F58B81813019F46A
:1003C0008AE490E004C0823041F488E390E09093A6
:1003D00093008093920082E121C08330F1F4911167
:1003E00008C084E990E0909393008093920084E0A9
:1003F00015C0913041F48CE690E090939300809387
:10040000920088E20BC0923041F48CE590E090932A
:1004100093008093920080E101C080E090E490938B
:10042000810016C0883069F0893029F490939700D4
:100430002DE830E004C02DE830E08A3021F080E083
:1004400003C027E930E081E03093930020939200CD
:100450009F81911104C09E81981708F4892F809381
:100460007500109294008091740084FF46C08091C2
:1004700075008F3F09F441C0C82F893008F0C8E0EB
:100480008C1B809375008091840098E88927809365
:100490008400CC2331F1209192003091930080911F
:1004A000810086FF0BC0F901A5E8B0E08C2F8A0F10
:1004B00094919D9331968A13FBCF09C0D901E5E849
:1004C000F0E08C2F8E0F9D9191938E13FCCF8C2F8B
:1004D000815090E00196820F931F90939300809338
:1004E00092006C2F85E890E031D0CC5FCC3019F0D1
:1004F0008FEF80937500C093740084E190B39C707B
:1005000031F48150D9F71092950010928F00DF914D
:10051000CF91089585B7826085BF8BB780648BBF0C
:100520000895A82FB92F80E090E041E050EA60954F
:1005300030E009C02D9182279795879510F0842788
:100540009527305EC8F36F5FA8F30895EADF8D93B7
:100550009D930895CF93CFB7CF93DF93C395839B9C
:10056000E9F7839B0BC0839B09C0839B07C0839BD8
:1005700005C0839B03C0839B01C089C06F93C0915A
:100580009100DD27C856DF4F2F9365E5839B03C09D
:100590002F916F91E6CF0F931F934F9320E040E18F
:1005A0005F9300B30C7003FB27F93F9350E03BE0EF
:1005B00039C01C7040642F77012F5F5F1EC04068F8
:1005C00010B31C702F7752501FC0406400B32F77B8
:1005D0000C70D1F15F5F00C023C0406210B32F7771
:1005E0001C7091F15F5F00C025C00C701027515046
:1005F00012F45D5F0000115027952C3F10B3C8F630
:100600001C700127015027952C3FC8F642274993BB
:1006100000B30C7010274F73115027952C3FA8F68C
:100620004695469510B31C7079F001270150279527
:100630002C3F98F66B5A60F3315000B3B0F600C00F
:1006400010E41ABF002717C03B503195C31BD040A0
:1006500010E41ABF0881033CF9F00B34E9F0209153
:100660008F001981110F1213EDCF093651F10D32A0
:1006700011F0013E39F7009396003F915F914F9141
:100680001F910F912F916F91CAB7C6FD67CFDF9170
:10069000CF91CFBFCF91189520919600222369F377
:1006A00010919400112339F534303AF130939400CD
:1006B00020939000109191003BE0311B309391000A
:1006C0001CC0009194000130B4F40AE5309174002C
:1006D00034FD14C000937400C4E8D0E013C00527B3
:1006E00010E000C0000002BB1AC0052710E0221F66
:1006F0001DC010E021C04AE502C032ED432FC4E125
:10070000D0E032E011B31C60939A02B311BB5CE0FD
:1007100020E865E320FF052702BB279517951C3FBE
:10072000F0F66695B8F7B1F720FF052702BB2795CD
:1007300017951C3FD0F62795179517FF0527000042
:100740001C3F02BBB0F629913A9519F7037F10912F
:100750009500110FC651D04002BB11F010938F00CD
:1007600010E41ABF086011B3137F402F437F54E099
:100770005A95F1F702BB11BB42BB7FCF8B9A8C9885
:10078000949A87EC87BB8091600088BB83E880BF28
:1007900083E083BF8FEF86BF84EF91E09BBD8ABD6E
:1007A0001FBC8BE08EBD80E489BF2FEF83EC99E006
:1007B000215080409040E1F700C000008B98AADEF5
:0C07C0007894C3DD80DDFDCFF894FFCFFE
:1007CC0040410103028280C00180FF0000008000D4
:0607DC00000080015AFF3D
:00000001FF
