:100000004AC08AC261C060C0C6C05EC05DC05CC07C
:100010005BC05AC059C058C057C056C055C054C024
:1000200053C052C051C040410103028280C041030D
:1000300082C04001028009021200010100803209E1
:10004000040000000000000012011001FF00000881
:10005000C016DC05000101020001100346006F001C
:100060006300750073006500720028036D00630073
:100070006F006E006F007600690063006900400049
:1000800067006D00610069006C002E0063006F0066
:100090006D000403090411241FBECFEDCDBF10E095
:1000A000A0E6B0E0EEEEF7E002C005900D92AC36AF
:1000B000B107D9F720E0ACE6B0E001C01D92A33A49
:1000C000B207E1F73DD391C39BCFFC0181818A3018
:1000D00009F449C070F48630E9F0893019F18530AF
:1000E00009F057C0828180936400838180936C0003
:1000F0002DC08C3009F44CC0F0F18D30C1F08F3F31
:1001000009F047C080E690E09093880080938700D4
:1001100081E0089587E790E09093880080938700BE
:1001200082E00895828193819BBD8ABD0FC0828148
:10013000813071F0823079F486E290E09093630030
:100140008093620088E080936100512C212C21C0B3
:100150008EE290E002C082E390E09093630080938F
:10016000620084E0F0CF85E690E090938800809371
:10017000870084E008958481958190936600809340
:100180006500828193819093680080936700DECF41
:10019000228080E0089578941F920F920FB60F92FC
:1001A00011242F933F938F939F93EF93FF932220DC
:1001B00021F1332011F1809165009091660020912A
:1001C00067003091680082179307B9F0840D911D84
:1001D00047FC9A959093660080936500842D850D69
:1001E0009091610091508923582EE0916200F09126
:1001F0006300E80FF11DE491E8BBFF91EF919F913F
:100200008F913F912F910F900FBE0F901F901895D7
:1002100094988C9A8FEC97E00197F1F700C000005A
:10022000949A8C98E3E0F1E03197F1F700C0000078
:1002300080B3E3EAF6E03197F1F700C00000849B59
:1002400002C08071089581E0089598E0282F217000
:1002500094988C9A3AE03A95F1F700C0222311F075
:100260008C98949A35E43A95F1F70000849B20E04D
:1002700030EF3A95F1F78C98949A86952111806821
:10028000915021F708951F93CF93DF9380916900D8
:10029000823069F0833089F0813099F5B9DF8111BE
:1002A00030C08CECD2DF84E4D0DF82E028C08FEF56
:1002B000CCDF8F3F31F583E022C0AADF8CECC5DFB5
:1002C0008EEBC3DFCDE6D0E010E08FEFBEDF899389
:1002D000182788E09CE8169508F419278A95D9F71D
:1002E00080E0C637D80789F7111108C080916D00EA
:1002F0008093770080916E008093780081E08093F6
:100300006900DF91CF911F910895CF93DF93809182
:100310008900835087FD89C09091860020918500D7
:100320002D3209F080C0883009F07DC0CCE0D0E0EB
:10033000C91BD109C357DF4F83EC809379008AE54D
:1003400080936B00109276008881807619F0CE0140
:10035000BCDE60C08A81109282009981911106C032
:100360001092830022E830E082E050C0953019F40A
:1003700080938A003DC09630A9F59B81913019F495
:1003800088E490E004C0923041F486E390E09093DA
:1003900088008093870082E121C09330F1F48111BD
:1003A00008C082E990E0909388008093870084E001
:1003B00015C0813041F48AE690E0909388008093E4
:1003C000870088E20BC0823041F48AE590E0909388
:1003D00088008093870080E101C080E090E49093E2
:1003E000760018C0983079F0993031F480938C0001
:1003F00022E830E080E00AC081E09A3009F080E035
:1004000022E830E003C02CE830E081E0309388003F
:10041000209387009F81911104C09E81981708F452
:10042000892F80936A001092890080916B0084FF6D
:1004300046C080916A008F3F09F441C0C82F8930BF
:1004400008F0C8E08C1B80936A008091790098E8DE
:10045000892780937900CC2331F120918700309156
:1004600088008091760086FF0BC0AAE7B0E0F90112
:100470008C2F8A0F94919D9331968A13FBCF09C0DC
:10048000D901EAE7F0E08C2F8E0F9D9191938E13A6
:10049000FCCF8FEF8C0F90E00196820F931F90930B
:1004A0008800809387006C2F8AE790E031D0CC5F82
:1004B000CC3019F08FEF80936A00C0936B0084E119
:1004C00090B39C7031F48150D9F710928A00109249
:1004D0008400DF91CF91089585B7826085BF8BB787
:1004E00080648BBF0895A82FB92F80E090E041E091
:1004F00050EA609530E009C02D9182279795879545
:1005000010F084279527305EC8F36F5FA8F3089535
:10051000EADF8D939D930895CF93CFB7CF93DF9369
:10052000C395839BE9F7839B0BC0839B09C0839B87
:1005300007C0839B05C0839B03C0839B01C089C008
:100540006F93C0918600DD27C357DF4F2F9365E57A
:10055000839B03C02F916F91E6CF0F931F934F930F
:1005600020E040E15F9300B30C7003FB27F93F9359
:1005700050E03BE039C01C7040642F77012F5F5F73
:100580001EC0406810B31C702F7752501FC04064CB
:1005900000B32F770C70D1F15F5F00C023C04062C1
:1005A00010B32F771C7091F15F5F00C025C00C70F5
:1005B0001027515012F45D5F0000115027952C3F19
:1005C00010B3C8F61C700127015027952C3FC8F6C0
:1005D0004227499300B30C7010274F731150279591
:1005E0002C3FA8F64695469510B31C7079F001276C
:1005F000015027952C3F98F66B5A60F3315000B3A9
:10060000B0F600C010E41ABF002717C03B50319568
:10061000C31BD04010E41ABF0881033CF9F00B342F
:10062000E9F0209184001981110F1213EDCF0936E2
:1006300051F10D3211F0013E39F700938B003F91DB
:100640005F914F911F910F912F916F91CAB7C6FD86
:1006500067CFDF91CF91CFBFCF91189520918B00BD
:10066000222369F310918900112339F534303AF1CE
:100670003093890020938500109186003BE0311B68
:10068000309386001CC0009189000130B4F40AE563
:1006900030916B0034FD14C000936B00C9E7D0E0CB
:1006A00013C0052710E000C0000002BB1AC00527D8
:1006B00010E0221F1DC010E021C04AE502C032ED4B
:1006C000432FC4E1D0E032E011B31C60939A02B32F
:1006D00011BB5CE020E865E320FF052702BB2795FE
:1006E00017951C3FF0F66695B8F7B1F720FF052780
:1006F00002BB279517951C3FD0F62795179517FF36
:10070000052700001C3F02BBB0F629913A9519F766
:10071000037F10918A00110FC651D04002BB11F027
:100720001093840010E41ABF086011B3137F402FA8
:10073000437F54E05A95F1F702BB11BB42BB7FCF18
:100740008B9A8C98949A87EC87BBE0916200F09129
:100750006300808188BB83E880BF83E083BF8FEF25
:1007600086BF88EE93E09BBD8ABD1FBC8BE08EBD2B
:1007700080E489BF2FEF83EC99E0215080409040C6
:10078000E1F700C000008B98A7DE7894BEDD7BDD2A
:10079000222059F020916500309166008091670019
:1007A000909168002817390759F4312C8FE39CE9A0
:1007B0000197F1F700C0000080916C0086BFE6CF82
:1007C0003110E4CF2817390710F481E001C08FEF12
:1007D000482E8091640086BF8FE39CE90197F1F772
:0E07E00000C0000033243394D1CFF894FFCF33
:0C07EE0002043200FF0080008001FF5A6E
:00000001FF
